{
  "contractName": "DonacijeDogodek",
  "abi": [
    {
      "inputs": [],
      "stateMutability": "nonpayable",
      "type": "constructor"
    },
    {
      "anonymous": false,
      "inputs": [
        {
          "indexed": true,
          "internalType": "address",
          "name": "donator",
          "type": "address"
        },
        {
          "indexed": false,
          "internalType": "uint256",
          "name": "vrednost",
          "type": "uint256"
        }
      ],
      "name": "DonacijaDogodek",
      "type": "event"
    },
    {
      "anonymous": false,
      "inputs": [],
      "name": "KoncanDogodek",
      "type": "event"
    },
    {
      "anonymous": false,
      "inputs": [
        {
          "indexed": false,
          "internalType": "address",
          "name": "donator",
          "type": "address"
        },
        {
          "indexed": false,
          "internalType": "uint256",
          "name": "vrednost",
          "type": "uint256"
        }
      ],
      "name": "PovraciloDogodek",
      "type": "event"
    },
    {
      "anonymous": false,
      "inputs": [],
      "name": "PrekliciDogodek",
      "type": "event"
    },
    {
      "anonymous": false,
      "inputs": [
        {
          "indexed": false,
          "internalType": "address",
          "name": "uporabnik",
          "type": "address"
        }
      ],
      "name": "PrijavaUporabnikaDogodek",
      "type": "event"
    },
    {
      "inputs": [
        {
          "internalType": "address",
          "name": "",
          "type": "address"
        }
      ],
      "name": "donacije",
      "outputs": [
        {
          "internalType": "uint256",
          "name": "",
          "type": "uint256"
        }
      ],
      "stateMutability": "view",
      "type": "function",
      "constant": true
    },
    {
      "inputs": [],
      "name": "jeKoncan",
      "outputs": [
        {
          "internalType": "bool",
          "name": "",
          "type": "bool"
        }
      ],
      "stateMutability": "view",
      "type": "function",
      "constant": true
    },
    {
      "inputs": [],
      "name": "jePovraciloDovoljeno",
      "outputs": [
        {
          "internalType": "bool",
          "name": "",
          "type": "bool"
        }
      ],
      "stateMutability": "view",
      "type": "function",
      "constant": true
    },
    {
      "inputs": [],
      "name": "jePreklican",
      "outputs": [
        {
          "internalType": "bool",
          "name": "",
          "type": "bool"
        }
      ],
      "stateMutability": "view",
      "type": "function",
      "constant": true
    },
    {
      "inputs": [],
      "name": "lastnik",
      "outputs": [
        {
          "internalType": "address",
          "name": "",
          "type": "address"
        }
      ],
      "stateMutability": "view",
      "type": "function",
      "constant": true
    },
    {
      "inputs": [
        {
          "internalType": "address",
          "name": "",
          "type": "address"
        }
      ],
      "name": "prijavljeni",
      "outputs": [
        {
          "internalType": "bool",
          "name": "jePrijavljen",
          "type": "bool"
        }
      ],
      "stateMutability": "view",
      "type": "function",
      "constant": true
    },
    {
      "inputs": [],
      "name": "statusDogodka",
      "outputs": [
        {
          "internalType": "enum DonacijeDogodek.StatusDogodka",
          "name": "",
          "type": "uint8"
        }
      ],
      "stateMutability": "view",
      "type": "function",
      "constant": true
    },
    {
      "inputs": [],
      "name": "prijavaNaDogodek",
      "outputs": [],
      "stateMutability": "nonpayable",
      "type": "function"
    },
    {
      "inputs": [],
      "name": "doniranje",
      "outputs": [],
      "stateMutability": "payable",
      "type": "function",
      "payable": true
    },
    {
      "inputs": [],
      "name": "prekiniDogodek",
      "outputs": [],
      "stateMutability": "nonpayable",
      "type": "function"
    },
    {
      "inputs": [],
      "name": "koncajDogodek",
      "outputs": [],
      "stateMutability": "nonpayable",
      "type": "function"
    },
    {
      "inputs": [],
      "name": "povracilo",
      "outputs": [],
      "stateMutability": "nonpayable",
      "type": "function"
    },
    {
      "inputs": [
        {
          "internalType": "address",
          "name": "_naslov",
          "type": "address"
        }
      ],
      "name": "jePrijavljenUporabnik",
      "outputs": [
        {
          "internalType": "bool",
          "name": "",
          "type": "bool"
        }
      ],
      "stateMutability": "view",
      "type": "function",
      "constant": true
    },
    {
      "inputs": [
        {
          "internalType": "address",
          "name": "_naslov",
          "type": "address"
        }
      ],
      "name": "jeLastnik",
      "outputs": [
        {
          "internalType": "bool",
          "name": "",
          "type": "bool"
        }
      ],
      "stateMutability": "view",
      "type": "function",
      "constant": true
    },
    {
      "inputs": [],
      "name": "vrniStatusDogodka",
      "outputs": [
        {
          "internalType": "enum DonacijeDogodek.StatusDogodka",
          "name": "",
          "type": "uint8"
        }
      ],
      "stateMutability": "view",
      "type": "function",
      "constant": true
    },
    {
      "inputs": [
        {
          "internalType": "address",
          "name": "_naslov",
          "type": "address"
        }
      ],
      "name": "imaUporabnikDonacije",
      "outputs": [
        {
          "internalType": "bool",
          "name": "",
          "type": "bool"
        }
      ],
      "stateMutability": "view",
      "type": "function",
      "constant": true
    }
  ],
  "bytecode": "0x608060405234801561001057600080fd5b5033600260006101000a81548173ffffffffffffffffffffffffffffffffffffffff021916908373ffffffffffffffffffffffffffffffffffffffff1602179055506000600260166101000a81548160ff0219169083151502179055506000600260156101000a81548160ff0219169083151502179055506000600260176101000a81548160ff0219169083151502179055506000600260146101000a81548160ff021916908360028111156100c9576100c86100d3565b5b0217905550610102565b7f4e487b7100000000000000000000000000000000000000000000000000000000600052602160045260246000fd5b611300806101116000396000f3fe6080604052600436106100f35760003560e01c80636e4e14ea1161008a578063bd5a6a1611610059578063bd5a6a16146102d5578063bdf55e2e14610300578063db8ec4d91461033d578063f2c25d0b1461037a576100f3565b80636e4e14ea14610217578063a2435d4014610242578063b220a2a61461026d578063b279e70b14610298576100f3565b8063468c805f116100c6578063468c805f1461016d578063562aec28146101985780635aa4c73b146101d5578063624edf19146101ec576100f3565b80630868b824146100f85780632ea146d31461013557806332eca07e1461014c5780633dfa8ea614610163575b600080fd5b34801561010457600080fd5b5061011f600480360381019061011a9190610dbe565b610391565b60405161012c9190610e06565b60405180910390f35b34801561014157600080fd5b5061014a6103e9565b005b34801561015857600080fd5b506101616105ef565b005b61016b61078b565b005b34801561017957600080fd5b506101826108dd565b60405161018f9190610e06565b60405180910390f35b3480156101a457600080fd5b506101bf60048036038101906101ba9190610dbe565b6108f0565b6040516101cc9190610e06565b60405180910390f35b3480156101e157600080fd5b506101ea61094a565b005b3480156101f857600080fd5b50610201610a75565b60405161020e9190610e98565b60405180910390f35b34801561022357600080fd5b5061022c610a8c565b6040516102399190610e06565b60405180910390f35b34801561024e57600080fd5b50610257610a9f565b6040516102649190610ec2565b60405180910390f35b34801561027957600080fd5b50610282610ac5565b60405161028f9190610e98565b60405180910390f35b3480156102a457600080fd5b506102bf60048036038101906102ba9190610dbe565b610ad8565b6040516102cc9190610e06565b60405180910390f35b3480156102e157600080fd5b506102ea610b03565b6040516102f79190610e06565b60405180910390f35b34801561030c57600080fd5b5061032760048036038101906103229190610dbe565b610b16565b6040516103349190610e06565b60405180910390f35b34801561034957600080fd5b50610364600480360381019061035f9190610dbe565b610b79565b6040516103719190610ef6565b60405180910390f35b34801561038657600080fd5b5061038f610b91565b005b60008060008373ffffffffffffffffffffffffffffffffffffffff1673ffffffffffffffffffffffffffffffffffffffff16815260200190815260200160002060000160009054906101000a900460ff169050919050565b600260009054906101000a900473ffffffffffffffffffffffffffffffffffffffff1673ffffffffffffffffffffffffffffffffffffffff163373ffffffffffffffffffffffffffffffffffffffff1614610479576040517f08c379a000000000000000000000000000000000000000000000000000000000815260040161047090610f94565b60405180910390fd5b6000600281111561048d5761048c610e21565b5b600260149054906101000a900460ff1660028111156104af576104ae610e21565b5b146104ef576040517f08c379a00000000000000000000000000000000000000000000000000000000081526004016104e690611026565b60405180910390fd5b6001600260156101000a81548160ff021916908315150217905550600260169054906101000a900460ff1615610595576001600260176101000a81548160ff02191690831515021790555060028060146101000a81548160ff0219169083600281111561055f5761055e610e21565b5b02179055507f0886e4e2c3c5a21b40624ae3c215df0a297752e0359a25784add433f749bf27d60405160405180910390a16105ed565b6001600260146101000a81548160ff021916908360028111156105bb576105ba610e21565b5b02179055507f80c9650ab028ddcd61a8244e8d0adb40ee76ac0b6b45cc1d541cbf2c1c691c5060405160405180910390a15b565b600260179054906101000a900460ff1661063e576040517f08c379a000000000000000000000000000000000000000000000000000000000815260040161063590611092565b60405180910390fd5b60003390506000600160008373ffffffffffffffffffffffffffffffffffffffff1673ffffffffffffffffffffffffffffffffffffffff16815260200190815260200160002054905060008114156106cb576040517f08c379a00000000000000000000000000000000000000000000000000000000081526004016106c2906110fe565b60405180910390fd5b6000600160008473ffffffffffffffffffffffffffffffffffffffff1673ffffffffffffffffffffffffffffffffffffffff168152602001908152602001600020819055507f1a48ed314e11107c36e95c13023ec8f6c6cb87c7ab7b2b2cb6a12b5030d56416828260405161074192919061111e565b60405180910390a18173ffffffffffffffffffffffffffffffffffffffff166108fc829081150290604051600060405180830381858888f1935050505061078757600080fd5b5050565b6000803373ffffffffffffffffffffffffffffffffffffffff1673ffffffffffffffffffffffffffffffffffffffff16815260200190815260200160002060000160009054906101000a900460ff16610819576040517f08c379a0000000000000000000000000000000000000000000000000000000008152600401610810906111b9565b60405180910390fd5b61082234610d29565b61082b57600080fd5b6000339050600034905080600160008473ffffffffffffffffffffffffffffffffffffffff1673ffffffffffffffffffffffffffffffffffffffff16815260200190815260200160002060008282546108849190611208565b925050819055508173ffffffffffffffffffffffffffffffffffffffff167f2f8cf9344e30e1a356440997f02ba35cca5b650ff5cd2a214e21dba1bd52cfec826040516108d19190610ef6565b60405180910390a25050565b600260159054906101000a900460ff1681565b6000600260009054906101000a900473ffffffffffffffffffffffffffffffffffffffff1673ffffffffffffffffffffffffffffffffffffffff168273ffffffffffffffffffffffffffffffffffffffff16149050919050565b600260009054906101000a900473ffffffffffffffffffffffffffffffffffffffff1673ffffffffffffffffffffffffffffffffffffffff163373ffffffffffffffffffffffffffffffffffffffff16146109da576040517f08c379a00000000000000000000000000000000000000000000000000000000081526004016109d190610f94565b60405180910390fd5b600060028111156109ee576109ed610e21565b5b600260149054906101000a900460ff166002811115610a1057610a0f610e21565b5b14610a50576040517f08c379a0000000000000000000000000000000000000000000000000000000008152600401610a4790611026565b60405180910390fd5b6001600260166101000a81548160ff021916908315150217905550610a736103e9565b565b6000600260149054906101000a900460ff16905090565b600260179054906101000a900460ff1681565b600260009054906101000a900473ffffffffffffffffffffffffffffffffffffffff1681565b600260149054906101000a900460ff1681565b60006020528060005260406000206000915090508060000160009054906101000a900460ff16905081565b600260169054906101000a900460ff1681565b600080600160008473ffffffffffffffffffffffffffffffffffffffff1673ffffffffffffffffffffffffffffffffffffffff1681526020019081526020016000205490506000811415610b6e576000915050610b74565b60019150505b919050565b60016020528060005260406000206000915090505481565b60006002811115610ba557610ba4610e21565b5b600260149054906101000a900460ff166002811115610bc757610bc6610e21565b5b14610c07576040517f08c379a0000000000000000000000000000000000000000000000000000000008152600401610bfe90611026565b60405180910390fd5b6000803373ffffffffffffffffffffffffffffffffffffffff1673ffffffffffffffffffffffffffffffffffffffff16815260200190815260200160002060000160009054906101000a900460ff1615610c96576040517f08c379a0000000000000000000000000000000000000000000000000000000008152600401610c8d906112aa565b60405180910390fd5b60016000803373ffffffffffffffffffffffffffffffffffffffff1673ffffffffffffffffffffffffffffffffffffffff16815260200190815260200160002060000160006101000a81548160ff0219169083151502179055507f8c590e70ed17cdd1211f1880223d71208de21e1b81ba04f8f04ec266b5bead4833604051610d1f9190610ec2565b60405180910390a1565b600080600083141590506000600260159054906101000a900460ff16159050818015610d525750805b92505050919050565b600080fd5b600073ffffffffffffffffffffffffffffffffffffffff82169050919050565b6000610d8b82610d60565b9050919050565b610d9b81610d80565b8114610da657600080fd5b50565b600081359050610db881610d92565b92915050565b600060208284031215610dd457610dd3610d5b565b5b6000610de284828501610da9565b91505092915050565b60008115159050919050565b610e0081610deb565b82525050565b6000602082019050610e1b6000830184610df7565b92915050565b7f4e487b7100000000000000000000000000000000000000000000000000000000600052602160045260246000fd5b60038110610e6157610e60610e21565b5b50565b6000819050610e7282610e50565b919050565b6000610e8282610e64565b9050919050565b610e9281610e77565b82525050565b6000602082019050610ead6000830184610e89565b92915050565b610ebc81610d80565b82525050565b6000602082019050610ed76000830184610eb3565b92915050565b6000819050919050565b610ef081610edd565b82525050565b6000602082019050610f0b6000830184610ee7565b92915050565b600082825260208201905092915050565b7f6b6c69636174656c6a2066756e6b63696a65206d6f72612062697469206c617360008201527f746e696b00000000000000000000000000000000000000000000000000000000602082015250565b6000610f7e602483610f11565b9150610f8982610f22565b604082019050919050565b60006020820190508181036000830152610fad81610f71565b9050919050565b7f66756e6b63696a6f206c61686b6f207a6168746576616d6f206c65206365206a60008201527f6520646f676f64656b20616b746976656e000000000000000000000000000000602082015250565b6000611010603183610f11565b915061101b82610fb4565b604082019050919050565b6000602082019050818103600083015261103f81611003565b9050919050565b7f646f676f64656b206e69207072656b6c6963616e000000000000000000000000600082015250565b600061107c601483610f11565b915061108782611046565b602082019050919050565b600060208201905081810360008301526110ab8161106f565b9050919050565b7f7a6e6573656b20646f6e6163696a206a6520656e616b20300000000000000000600082015250565b60006110e8601883610f11565b91506110f3826110b2565b602082019050919050565b60006020820190508181036000830152611117816110db565b9050919050565b60006040820190506111336000830185610eb3565b6111406020830184610ee7565b9392505050565b7f75706f7261626e696b206d6f72612062697469207072696a61766c6a656e206e60008201527f6120646f676f64656b0000000000000000000000000000000000000000000000602082015250565b60006111a3602983610f11565b91506111ae82611147565b604082019050919050565b600060208201905081810360008301526111d281611196565b9050919050565b7f4e487b7100000000000000000000000000000000000000000000000000000000600052601160045260246000fd5b600061121382610edd565b915061121e83610edd565b9250827fffffffffffffffffffffffffffffffffffffffffffffffffffffffffffffffff03821115611253576112526111d9565b5b828201905092915050565b7f75706f7261626e696b206a65207a65207072696a61766c6a656e000000000000600082015250565b6000611294601a83610f11565b915061129f8261125e565b602082019050919050565b600060208201905081810360008301526112c381611287565b905091905056fea2646970667358221220ed3258841aeb2b4d1aa5b9a7438784db2bcb736f3617a19a829caeb54cf6582b64736f6c634300080a0033",
  "immutableReferences": {},
  "source": "// SPDX-License-Identifier: MIT\r\npragma solidity ^0.8.10;\r\n\r\nimport \"./DonacijeVmesnik.sol\";\r\n\r\ncontract DonacijeDogodek is DonacijeVmesnik {\r\n\r\n    struct Uporabnik {\r\n        bool jePrijavljen;\r\n    }\r\n\r\n    enum StatusDogodka {\r\n        Aktiven,\r\n        Koncan,\r\n        Preklican\r\n    }\r\n\r\n    mapping(address => Uporabnik) public prijavljeni;\r\n    mapping(address => uint256) public donacije;\r\n    address public lastnik;\r\n    StatusDogodka public statusDogodka;\r\n    bool public jeKoncan;\r\n    bool public jePreklican;\r\n    bool public jePovraciloDovoljeno;\r\n\r\n    event PrijavaUporabnikaDogodek(address uporabnik);\r\n    event DonacijaDogodek(address indexed donator, uint256 vrednost);\r\n    event KoncanDogodek();\r\n    event PrekliciDogodek();\r\n    event PovraciloDogodek(address donator, uint256 vrednost);\r\n\r\n    constructor() {\r\n        lastnik = msg.sender;\r\n\r\n        jePreklican = false;\r\n        jeKoncan = false;\r\n        jePovraciloDovoljeno = false;\r\n        statusDogodka = StatusDogodka.Aktiven;\r\n    }\r\n\r\n    modifier samoLastnik {\r\n        require(msg.sender == lastnik,\r\n        \"klicatelj funkcije mora biti lastnik\");\r\n        _;\r\n    }\r\n\r\n    modifier aktivenDogodek {\r\n        require(\r\n            statusDogodka == StatusDogodka.Aktiven,\r\n            \"funkcijo lahko zahtevamo le ce je dogodek aktiven\"\r\n        );\r\n        _;\r\n    }\r\n\r\n    modifier samoPrijavljen() {\r\n        require(\r\n            prijavljeni[msg.sender].jePrijavljen, \r\n            \"uporabnik mora biti prijavljen na dogodek\"\r\n        );\r\n        _;\r\n    }\r\n\r\n    function prijavaNaDogodek() aktivenDogodek public {\r\n        require(\r\n            !prijavljeni[msg.sender].jePrijavljen, \r\n            \"uporabnik je ze prijavljen\"\r\n        );\r\n        prijavljeni[msg.sender].jePrijavljen = true;\r\n        emit PrijavaUporabnikaDogodek(msg.sender);\r\n    }\r\n\r\n    function doniranje() samoPrijavljen public payable {\r\n        require(jeVeljavnaDonacija(msg.value));\r\n\r\n        address donator = msg.sender;\r\n        uint256 donacija = msg.value;\r\n\r\n        donacije[donator] += donacija;\r\n        emit DonacijaDogodek(donator, donacija);\r\n    }\r\n\r\n    function jeVeljavnaDonacija(uint256 _donacija) internal view returns (bool) {\r\n        bool vecjaOdNic = _donacija != 0;\r\n        bool dogodekNiKoncan = !jeKoncan;\r\n        return vecjaOdNic && dogodekNiKoncan;\r\n    }\r\n\r\n    function prekiniDogodek() samoLastnik aktivenDogodek public {\r\n        jePreklican = true;\r\n        koncajDogodek();\r\n    }\r\n\r\n    function koncajDogodek() samoLastnik aktivenDogodek public {\r\n        jeKoncan = true;\r\n        if (jePreklican) {\r\n            jePovraciloDovoljeno = true;\r\n            statusDogodka = StatusDogodka.Preklican;\r\n            emit PrekliciDogodek();\r\n        } else {\r\n            statusDogodka = StatusDogodka.Koncan;\r\n            emit KoncanDogodek();\r\n        }\r\n    }\r\n\r\n    function povracilo() public {\r\n        if (!jePovraciloDovoljeno) revert(\"dogodek ni preklican\");\r\n        address donator = msg.sender;\r\n        uint256 donacija = donacije[donator];\r\n        if(donacija == 0) revert(\"znesek donacij je enak 0\");\r\n        donacije[donator] = 0;\r\n        emit PovraciloDogodek(donator, donacija);\r\n        if(!payable(donator).send(donacija)) revert();\r\n    }\r\n\r\n  function jePrijavljenUporabnik(address _naslov) public view returns(bool) {\r\n    return prijavljeni[_naslov].jePrijavljen;\r\n  }\r\n\r\n  function jeLastnik(address _naslov) public view returns(bool) {\r\n    return _naslov == lastnik;\r\n  }\r\n\r\n  function vrniStatusDogodka() public view returns(StatusDogodka) {\r\n    return statusDogodka;\r\n  }\r\n\r\n  function imaUporabnikDonacije(address _naslov) public view returns(bool) {\r\n    uint256 donacija = donacije[_naslov];\r\n    if(donacija == 0) return false;\r\n    return true;\r\n  }\r\n\r\n}",
  "sourcePath": "C:\\Miha\\School\\SP\\LP-06\\app_dapp\\contracts\\DonacijeDogodek.sol",
  "compiler": {
    "name": "solc",
    "version": "0.8.10+commit.fc410830.Emscripten.clang"
  },
  "schemaVersion": "3.4.4",
  "updatedAt": "2022-01-09T16:46:25.913Z",
  "networkType": "ethereum",
  "devdoc": {
    "kind": "dev",
    "methods": {},
    "version": 1
  },
  "userdoc": {
    "kind": "user",
    "methods": {},
    "version": 1
  }
}